:100000001AC034C072C095C031C030C02FC02EC0DD
:100010002DC02CC02BC0D6C029C028C027C026C0E8
:1000200025C024C023C05FC563C567C56CC573C543
:1000300078C57EC583C511241FBECFE5D2E0DEBFE3
:10004000CDBF10E0A0E6B0E0ECECF0E102C005901E
:100050000D92AE38B107D9F710E0AEE8B0E001C0BC
:100060001D92A73AB107E1F776D32EC8C9CFD39A2C
:10007000D19AB898B998BA98C09AC19AC29A8FE1A1
:100080009EE40197F1F700C00000B09906C0D9982E
:10009000DB9A8091A4008E7F05C0D99ADB9880916D
:1000A000A40081608093A4009091A4009170990FA6
:1000B0008091A4008D7F892B8093A40008958BB735
:1000C00080618BBF89B7806489BF8FB58D608FBD1C
:1000D00083EC8DBD479A339A86B1866086B9379A8C
:1000E000089A80E881BF789408951F920F920FB606
:1000F0000F9211248F938091A10083FD14C08091F1
:10010000A10088608093A1008091A4008160809309
:10011000A4008091A40084608093A4008091A40036
:1001200088608093A4008F910F900FBE0F901F9056
:1001300018951F920F920FB60F9211248F939F93D1
:1001400083EF93E00197F1F700C000008091A400D5
:1001500082FD14C08091A10080FD10C08091A50097
:100160009091A60001979093A6008093A500009718
:1001700029F48091A10081608093A1008091A20068
:100180009091A30001979093A3008093A200009701
:1001900089F48091A10082608093A1008AE090E0C0
:1001A0009093A3008093A2008FEE90E00197F1F767
:1001B00000C000001EBC9F918F910F900FBE0F904A
:1001C0001F9018951F920F920FB60F9211242F9324
:1001D0003F934F938F939F938091A10082FD1DC009
:1001E0008091A10084608093A10010929A001092E7
:1001F000990084B190E090939A0080939900809147
:10020000990090919A0045B1342F20E0822B932BD6
:1002100090939A008093990037989F918F914F9176
:100220003F912F910F900FBE0F901F90189584E073
:1002300090E020D78093970083E090E01BD78093D5
:10024000960082E090E016D78093930081E090E0E2
:1002500011D78093920080E090E00CD780939F00AC
:10026000089584E090E0609197000CD783E090E0DF
:100270006091960007D782E090E06091930002D7EA
:1002800081E090E060919200FDD680E090E0609186
:100290009F00F8D608958091960090E064E870E0A1
:1002A0004AE050E0C8D68091970090E067E870E09F
:1002B0004AE050E0C0D6809196008A3038F48091B0
:1002C00084008093850080E3809384008091970070
:1002D0008A3038F4809187008093880080E380938F
:1002E0008700E2D187E890E0F4D180E2E0D184E8B1
:1002F00090E0EFD19091A00081E0913009F480E08E
:100300008093A000882329F082E060E0C0D18AE3D6
:10031000CED108958091920090E06EE770E04AE0BF
:1003200050E089D68091930090E061E870E04AE067
:1003300050E081D6809192008A3038F480917E001E
:1003400080937F0080E380937E00809193008A30C9
:1003500038F4809181008093820080E38093810053
:1003600080E061E094D181E890E0B3D18AE39FD14D
:100370008EE790E0AED10895CF92DF92EF92FF9298
:10038000CF93DF9300D000D00F92CDB7DEB7DE0160
:100390001196E0E6F0E085E001900D928150E1F7E2
:1003A00060919B0070919C0080919D0090919E00B7
:1003B000DDD4DC01CB01BE016F5F7F4F4AE050E02E
:1003C0003AD689E060E063D160919B0070919C0017
:1003D00080919D0090919E00C9D4675F7F4F6331EB
:1003E000710510F480E263D160919B0070919C00D4
:1003F00080919D0090919E00B9D477FD02C08BE260
:1004000056D1CE01019665D18EE251D1C0909B00AC
:10041000D0909C00E0909D00F0909E00E894F7F84A
:10042000C701B601A3D4882777FD8095982FD1D432
:100430009B01AC01C701B601CCD39B01F82FE92F7A
:10044000462F532F682F792F40939B0050939C0089
:1004500060939D0070939E00822F932FAF2FBE2F2D
:10046000BC01CD0120E030E040E251E43ED57ED435
:10047000DC01CB01BE016F5F7F4F4AE050E0DBD56E
:10048000CE01019626D182EB12D183E410D10F90D8
:100490000F900F900F900F90DF91CF91FF90EF9002
:1004A000DF90CF9008958CE02CD1F5DE65DF32DF50
:1004B00008956091990070919A0080E090E087D44F
:1004C00020E030E44CE950E410D520E030EC48EA7C
:1004D00054E47FD320E030E044EB51E4DFD3DC018F
:1004E000CB0180939B0090939C00A0939D00B093C0
:1004F0009E000895FC01DB0180814130C9F0873105
:1005000019F484E1808305C011969C911197993369
:1005100011F480E306C08F5F808311968C91119750
:100520008F5F11968C93119711968C9111970CC037
:100530008E3020F08A50808380E304C0865F808301
:100540008C918F5F8C938C91B2D080E190D0089584
:10055000FC01DB0180814130D1F08B3311F482E367
:1005600006C011969C911197993321F4895080838C
:1005700080E306C08F5F808311968C9111978F5F07
:1005800011968C93119711968C9111970CC0823310
:1005900020F08253808380E304C0865F80838C9147
:1005A0008F5F8C938C9183D080E161D00895009708
:1005B00011F400C008950197F1F70895C49A00C09E
:1005C000C4980895CF93662311F0C69A01C0C698C7
:1005D000C598D49AD59AD69AD79ADF98DE98DD989E
:1005E000DC9887FDDF9AC82F86FDDE9AC5FDDD9A6F
:1005F000C4FDDC9AE3DFDF98DE98DD98DC98C3FD6C
:10060000DF9AC2FDDE9AC1FDDD9AC0FDDC9AD6DF1D
:10061000DC9ADD9ADE9ADF9ACF910895C698C59A42
:10062000D498D598D698D798C49A00C0CC9902C0CF
:1006300080E001C080E1CD998062CE998064CF993D
:100640008068C49800C0C49A00C0CC998160CD99DC
:100650008260CE998460CF998860C4980895DEDF67
:1006600087FDFDCF84E090E0A2DFD8DF0895CF932F
:10067000C82FF5DF8C2F60E0A5DFCF910895CF93D1
:10068000C82FEDDF8C2F61E09DDFCF9108956623A9
:1006900011F4805801C08054EADF0895E0DF90E053
:1006A000089581E0E4DF089582E0E1DF0895CF93CB
:1006B000C82FD5DFCA3041F4803410F480E401C083
:1006C00080E08058D4DF03C08C2F61E07BDFCF91C6
:1006D0000895CF93DF93EC0101C0E9DF899188236E
:1006E000E1F7DF91CF910895CF93DF93EC0101C043
:1006F000DEDFFE01219684918823D1F7DF91CF912F
:100700000895CF93C82FBE9ABD9ABC9AD49AD59A11
:10071000D69AD79A80E09DE74ADFDD9ADC9A4EDFD1
:1007200080E097E244DF4ADF80E890E040DF46DF88
:1007300080E890E03CDFDC9841DF80E890E037DF44
:1007400088E295DF88E093DFACDF86E090DF8C2FD6
:100750008EDFCF9108958091A40084608093A400DF
:100760008091A40088608093A40084E190E090933D
:10077000A6008093A5008AE090E09093A300809368
:10078000A2008091A1008D7F8093A1008091A100A3
:100790008E7F8093A1008091A1008B7F8093A10028
:1007A0008091A100877F8093A10061DC88DC3FDD20
:1007B0007ADE80919F00882339F08091A40080FF29
:1007C0000BC0D998DB9A08C08091A40080FD04C0BA
:1007D00081E080939F0045DD10E0D0E0C0E001E0C3
:1007E0009CE3C92ED12C8091A10081FF9CC0209157
:1007F0009400309195002F5F3F4F309395002093E8
:100800009400DD2309F08AC02C333105A0F0C90122
:10081000B601FDD3862F90919600960F9093960087
:1008200090E064EC7FEFD5D3280F391F309395000B
:1008300020939400379A209196002C3388F0822FD1
:100840006CE3D9D390919700980F9093970064EC44
:10085000B7D3820F80939600983110F010929700D2
:1008600080919F008823B9F0909197008091930028
:10087000981708F452C090919600809192009817B2
:1008800008F44BC08091A40080FF47C0D99ADB9840
:1008900010929F0041C0209190003091910021154D
:1008A000310531F480918E0090918F000097A9F16D
:1008B00060919300862F90E0821B930B70919200C1
:1008C000472F50E020918E0030918F00421B530B38
:1008D00097FD489657FF03C0445C5F4F0197E09136
:1008E00097002E2F30E02817390739F480919600B1
:1008F00090E08417950731F40BC08217930714F426
:10090000E61730F0E61749F480919600871728F42F
:10091000D998DB9A00939F00A4DCBDDC8091A100F4
:100920008D7F8093A1008091A10080FF31C08091D4
:10093000A40082FD2DC08D2F90E0D1E00097A9F09A
:10094000D0E0112359F010929500109294008AE0A3
:1009500090E09093A3008093A2001EBC8CE087DE01
:100960009ADCD8DC7EDC10E009C082E060E08FDE3B
:100970008AE39DDE99DE8FE07ADEC0E08091A100FF
:100980008E7F8093A1008091A40084608093A40056
:100990008091A10082FF4AC08CDD80919F00882356
:1009A000E9F560919B0070919C0080919D00909171
:1009B0009E00DCD1DC01CB017C01A0919000B091C4
:1009C000910040918E0050918F0060E0262F30E022
:1009D000220F331FF901EE58FF4F80819181E816F5
:1009E000F9068CF02A593F4FF90120813181C90164
:1009F000B6010DD3CB01DB016CE370E0EAD2A901B3
:100A0000481B590B66E06F5F663000F3A0939000BF
:100A1000B093910050938F0040938E00DD2309F432
:100A2000ABDC8091A1008B7F8093A1008091A1001D
:100A300083FFBCC08FE19EE40197F1F700C0000086
:100A4000B09905C08091A4008E7F8093A400B199D5
:100A50000CC08091A4008B7F8093A40084E190E07F
:100A60009093A6008093A50007C0B29905C080911D
:100A7000A400877F8093A4009091A400917080913E
:100A8000A400869581709817C9F09091A400917088
:100A9000990F8091A4008D7F892B8093A400809171
:100AA000A40080FD05C0D998DB9A00939F0004C084
:100AB000D99ADB9810929F00D4DB73C08091A40078
:100AC00083FD43C0DD2309F440C08091A400886009
:100AD0008093A400EC2FF0E0E830F10508F061C04D
:100AE000ED5EFF4F099487E990E067E870E017C07A
:100AF00087E990E067E870E018C086E990E064E874
:100B000070E041E005C086E990E064E870E040E014
:100B10001FDD11E046C083E990E061E870E041E04C
:100B200005C083E990E061E870E040E0E3DC39C0B3
:100B300082E990E06EE770E041E005C082E990E074
:100B40006EE770E040E004DD2CC08091A40082FDDF
:100B500028C0DD2331F1EC2EE39495E09E1548F09A
:100B6000E4E0EE1698F4F1E0EF1639F0EF16B8F085
:100B700009C087E08E1598F00CC081E060E087DD49
:100B8000C1E00FC08C2F8E5F60E006C08C2F8350B9
:100B900002C08C2F825061E07ADDCE2D02C084DD50
:100BA000C0E08091A100877F8093A100379903C0A6
:100BB00085B7877E03C085B7877E886085BFF89438
:100BC00085B7806285BF7894889585B78F7D85BF0E
:100BD0000ACE5058BB27AA270ED04DC13ED130F0C7
:100BE00043D120F031F49F3F11F41EF433C10EF4D1
:100BF000E095E7FB29C1E92F4FD180F3BA176207CF
:100C000073078407950718F071F49EF567C10EF419
:100C1000E0950B2EBA2FA02D0B01B90190010C010C
:100C2000CA01A0011124FF27591B99F0593F50F424
:100C3000503E68F11A16F040A22F232F342F44277C
:100C4000585FF3CF469537952795A795F040539574
:100C5000C9F77EF41F16BA0B620B730B840BBAF044
:100C60009150A1F0FF0FBB1F661F771F881FC2F7AF
:100C70000EC0BA0F621F731F841F48F487957795C3
:100C80006795B795F7959E3F08F0B3CF9395880F7A
:100C900008F09927EE0F9795879508950CD0EBC033
:100CA000E3D040F0DAD030F021F45F3F19F0CCC04F
:100CB000511115C1CFC0F0D098F39923C9F3552332
:100CC000B1F3951B550BBB27AA276217730784073F
:100CD00038F09F5F5F4F220F331F441FAA1FA9F3F5
:100CE00033D00E2E3AF0E0E830D091505040E695E7
:100CF000001CCAF729D0FE2F27D0660F771F881F48
:100D0000BB1F261737074807AB07B0E809F0BB0B36
:100D1000802DBF01FF2793585F4F2AF09E3F51055A
:100D200068F092C0DCC05F3FECF3983EDCF3869540
:100D300077956795B795F7959F5FC9F7880F911DD0
:100D40009695879597F90895E1E0660F771F881FBC
:100D5000BB1F621773078407BA0720F0621B730B6F
:100D6000840BBA0BEE1F88F7E095089504D06894C1
:100D7000B111B5C0089598D088F09F5790F0B92F61
:100D80009927B751A0F0D1F0660F771F881F991FE0
:100D90001AF0BA95C9F712C0B13081F09FD0B1E016
:100DA00008959CC0672F782F8827B85F39F0B93F26
:100DB000CCF3869577956795B395D9F73EF49095E2
:100DC0008095709561957F4F8F4F9F4F0895E89460
:100DD00009C097FB3EF490958095709561957F4F83
:100DE0008F4F9F4F9923A9F0F92F96E9BB27939531
:100DF000F695879577956795B795F111F8CFFAF441
:100E0000BB0F11F460FF1BC06F5F7F4F8F4F9F4F71
:100E100016C0882311F096E911C0772321F09EE8CF
:100E2000872F762F05C0662371F096E8862F70E035
:100E300060E02AF09A95660F771F881FDAF7880F0F
:100E40009695879597F9089597F99F6780E870E0E0
:100E500060E008959FEF80EC089500240A94161630
:100E6000170618060906089500240A941216130698
:100E7000140605060895092E0394000C11F4882326
:100E800052F0BB0F40F4BF2B11F460FF04C06F5F42
:100E90007F4F8F4F9F4F089557FD9058440F551F18
:100EA00059F05F3F71F04795880F97FB991F61F0EC
:100EB0009F3F79F087950895121613061406551F63
:100EC000F2CF4695F1DF08C0161617061806991FCF
:100ED000F1CF86957105610508940895E894BB27C4
:100EE00066277727CB0197F908950AD0C4CFB5DFDD
:100EF00028F0BADF18F0952309F0A6CFABCFEFCFDB
:100F0000CBDFA8F39923D9F35523C9F3950F50E00C
:100F1000551FAA27EE27FF27BB27002408946795B3
:100F200020F4E20FF31FB41F0A1E220F331F441FC9
:100F3000AA1F6695A9F7779530F4F30FB41F0A1E20
:100F4000121E08F46395330F441FAA1F221F7695C3
:100F500099F7879520F4B40F0A1E121E631F440FE1
:100F6000AA1F221F331F8695A9F7862F712D602D8A
:100F700011249F5750408AF0E1F088234AF0EE0F89
:100F8000FF1FBB1F661F771F881F91505040A9F796
:100F90009E3F510570F058CFA2CF5F3FECF3983ED3
:100FA000DCF3869577956795B795F795E7959F5FFD
:100FB000C1F7FE2B880F911D9695879597F9089597
:100FC000002480FD060E660F11F08695D1F7802D66
:100FD00008955527002480FF02C0060E571F660F94
:100FE000771F6115710521F096958795009799F700
:100FF000952F802D0895991B79E004C0991F9617AD
:1010000008F0961B881F7A95C9F780950895AA1B4A
:10101000BB1B51E107C0AA1FBB1FA617B70710F0E3
:10102000A61BB70B881F991F5A95A9F78095909515
:10103000BC01CD010895FB019F01E8944230BCF052
:101040004532ACF44A3029F497FB1EF49095819513
:101050009F4F642F7727DBDF805D8A330CF0895D3B
:101060008193CB010097A9F716F45DE251931082AA
:10107000C9011AC0E199FECF9FBB8EBBE09A9927A8
:101080008DB30895262FE199FECF9FBB8EBBE09ACA
:1010900001970DB2021639F01CBA2DBB0FB6F894A9
:1010A000E29AE19A0FBE0895DC01FC01672F71916D
:1010B0007723E1F7329704C07C916D93708362913E
:0C10C000AE17BF07C8F30895F894FFCFE7
:1010CC0030303030000000001E005A0078006801FB
:1010DC00680106000000FBFFF6FFECFFCEFF30308E
:0E10EC00003030003030003030000A000200CA
:00000001FF
