:100000000BC024C023C022C021C020C01FC01EC0FE
:100010001DC01CC01BC01AC011241FBECFEDCDBF18
:1000200010E0A0E6B0E0E6E8F0E003C0C895319645
:100030000D92A036B107D1F710E0A0E6B0E001C004
:100040001D92A036B107E1F706D01BC0D9CFD49AD4
:10005000D19AD0980895FBDF8FE79AE1A6E081500E
:100060009040A040E1F700C00000D9988FE392E4EF
:10007000AFE081509040A040E1F700C00000D99A65
:06008000EBCFF894FFCF66
:00000001FF
